:100000000C9434000C9451000C9451000C94510049
:100010000C9451000C9451000C9451000C9451001C
:100020000C9451000C9451000C9451000C9451000C
:100030000C9451000C9451000C9451000C945100FC
:100040000C9451000C9451000C9451000C945100EC
:100050000C9451000C9451000C9451000C945100DC
:100060000C9451000C94510011241FBECFEFD8E026
:10007000DEBFCDBF21E0A2E1B1E001C01D92A831F9
:10008000B207E1F711E0A0E0B1E0EAECF1E002C074
:1000900005900D92A231B107D9F70E945C000C9433
:1000A000E3000C9400009091C00095FFFCCF80937A
:1000B000C60090E080E008958FEF84B980EF85B9A5
:1000C0001092C50087E68093C400E0ECF0E08081E8
:1000D0008D7F808388E18093C10086E08093C20099
:1000E00080E091E090931501809314018AE090E004
:1000F0000E9481008EE091E00E94880090E080E004
:10010000089560911401709115010E94B300089543
:100110000F931F93CF93DF93E0911401F09115019A
:100120002381EC0110E000E021FD08C00FEF1FEF7C
:1001300014C00995892B11F00FEF1FEF8991609181
:10014000140170911501DB011896ED91FC9181115C
:10015000F0CF8AE00995892B49F7C801DF91CF914B
:100160001F910F9108950F931F93CF93DF93182F33
:10017000092FEB018B8181FD09C01FEF0FEF812F4C
:10018000902FDF91CF911F910F91089582FF14C09E
:100190002E813F818C819D81281739073CF4E881AD
:1001A000F981CF0101969983888310838E819F8185
:1001B00001969F838E83E3CFE885F985812F09958A
:0A01C000892BA1F3DACFF894FFCFEA
:1001CA000000000300000000530000000000686502
:0201DA007900AA
:00000001FF
